:100000000C94CE000C94F6000C94F6000C94F600C0
:100010000C94F6000C94F6000C94F6000C94F60088
:100020000C94F6000C94F6000C94D9100C94481122
:100030000C94F6000C94F6000C94F6000C94F60068
:100040000C94F6000C94F6000C94F6000C94F60058
:100050000C94F6000C94F6000C94F6000C948F109F
:100060000C94F6000C94F6000C94F6000C94F60038
:100070000C94F6000C94F6000C94F6000C94F60028
:100080000C947A130C94F6000C94F6000C94F60081
:100090000C94F6000C94F6000C94F6000C94F60008
:1000A0000C94F6000C94F6000C94F600080B000279
:1000B0000202000009040000010202000005240001
:1000C0001001052401010104240206052406000193
:1000D0000705810310004009040100020A00000026
:1000E00007050202400000070583024000000403E8
:1000F000090412010002EF0201404F1B06920001A9
:1001000001020301537061726B46756E005370619A
:10011000726B46756E2050726F204D6963726F006E
:100120000000000200090F0000030401000C0000A1
:1001300000000000000000000000000000000300BC
:10014000000000250028002B002E003100000000D8
:1001500000240027002A002D0030000404040404B9
:10016000030405020202020403020202020606065A
:1001700006060604040202020404040802011040F8
:100180008040102040804080080204018040201000
:10019000020110801020404020004B1611241FBE89
:1001A000CFEFDAE0DEBFCDBF29E0A6ECB5E001C0BD
:1001B0001D92A835B207E1F715E0A0E0B1E0EEE846
:1001C000F2E302C005900D92A63CB107D9F710E00A
:1001D000CEECD0E004C02197FE010E941C17CD3C5C
:1001E000D107C9F70E94D5130C9445190C9400004F
:1001F00090E0FC01E658FE4F2491855A9E4FFC0189
:100200008491882399F090E0880F991FFC01E35BAB
:10021000FE4FA591B491FC01E15CFE4F8591949154
:100220008FB7F894EC91E22BEC938FBF0895CF93A6
:10023000DF93DC0161157105F9F0FB0121918D91CE
:100240009C9111972223C1F0AC014F5F5F4F413C5D
:10025000510530F01092F30880E0DF91CF910895BE
:100260008D5C974FEC0128838D919C91119701969D
:1002700011969C938E93E2CFED91FC91ED5CF74F3C
:10028000108281E0EACF0F931F93CF93DF9300D0CA
:1002900000D0CDB7DEB78C011C821B8264EE71E00A
:1002A000CE0103960E941701811111C01A82198292
:1002B00065EF71E0CE0101960E9417010F900F903B
:1002C0000F900F90DF91CF911F910F9108956CEADD
:1002D00075E0CE0103960E941701882339F364E28A
:1002E00072E0CE0103960E9417018823F9F20115EE
:1002F000110511F406ED11E0B801CE0103960E943C
:100300001701882399F260E375E0CE0103960E94FD
:100310001701882359F2D2CFEF92FF920F931F93C8
:10032000CF93DF9300D0CDB7DEB78C017B01611591
:10033000710521F0FB01808181110CC0C8010E9470
:1003400043010F900F90DF91CF911F910F91FF907C
:10035000EF9008951A82198264EE71E0CE01019641
:100360000E941701811103C08FE292E0E8CF6CEA8E
:1003700075E0CE0101960E9417018823A9F364E27B
:1003800072E0CE0101960E941701882369F30115DE
:10039000110511F406ED11E0B801CE0101960E949D
:1003A0001701882309F361E472E0CE0101960E94EF
:1003B00017018823C9F2B701CE0101960E941701E7
:1003C000882391F260E375E0CE0101960E94170147
:1003D000882351F2B6CFEF92FF920F931F93CF93E2
:1003E000DF9300D0CDB7DEB78C017B0161157105BD
:1003F00009F451C0FB018081882309F44CC01A82A2
:10040000198262E572E0CE0101960E941701811106
:100410000DC08FE292E00E9443010F900F90DF9198
:10042000CF911F910F91FF90EF9008956CEA75E0C6
:10043000CE0101960E941701882359F362E672E00B
:10044000CE0101960E941701882319F301151105A9
:1004500011F40FE412E0B801CE0101960E941701D9
:100460008823B9F261E472E0CE0101960E9417017F
:10047000B701882371F2CE0101960E9417018823EB
:1004800041F260E375E0CE0101960E9417018823D6
:1004900009F4BFCFC2CF1A82198262E572E0CE01A1
:1004A00001960E941701882309F4B3CF6CEA75E026
:1004B000CE0101960E941701882309F4AACF62E6B3
:1004C00072E0CE0101960E941701882309F4A1CFA2
:1004D0000115110511F40FE412E0B801CCCFFC01B5
:1004E00080919B07882311F13FB7F89482E08093B5
:1004F000E9002091F200822F90E01816190614F4FA
:1005000081E090E0882339F0289844E640939A07E8
:100510004091F1004083222339F02091F200211113
:1005200003C02BE62093E8003FBF08958FEF9FEFB5
:1005300008952FB7F89483E08093E9009091E80044
:10054000892F807295FF04C09091F20080E4891B8E
:100550002FBF08958091920781110DC082E0809392
:100560008E0784E080938F07109291071092900776
:1005700081E0809392078EE897E00895282F30E07D
:10058000F901E05EFE4F9491F901E658FE4F849127
:10059000255A3E4FF9012491222309F430C09923B2
:1005A000E9F091509F30D0F4E92FF0E0E652FD4F92
:1005B0000C941C1708030C03E90200030403EE0269
:1005C000EE02EE020F03150319031D032303EE02CF
:1005D0002703909180009F7790938000E22FF0E0B6
:1005E000EE0FFF1FE15CFE4FA591B4919FB7F89409
:1005F000EC91611132C080958E238C939FBF08953A
:10060000909180009F7DE8CF90918000977FE4CF0C
:1006100094B59F7794BDE2CF94B59F7DFBCF909129
:1006200090009F7790939000D9CF909190009F7DFC
:10063000F9CF90919000977FF5CF9091C0009F7770
:100640009093C000CBCF9091C0009F7DF9CF909147
:10065000C200977F9093C200C1CF8E2BCECF3FB701
:10066000F89480918A0790918B07A0918C07B091A4
:100670008D0726B5A89B05C02F3F19F00196A11D37
:10068000B11D3FBFBA2FA92F982F8827BC01CD01DC
:10069000620F711D811D911D42E0660F771F881F3B
:1006A000991F4A95D1F70895CF92DF92EF92FF926A
:1006B0000E942F036B017C010E942F036C197D099E
:1006C0008E099F09683E734081059105A8F3FF904C
:1006D000EF90DF90CF9008952FB7F8946091860740
:1006E0007091870780918807909189072FBF08959F
:1006F0004091CD055091CE052091CB053091CC0590
:1007000042175307B4F49091E8009570E1F390918B
:10071000E80092FD19C08093F1008091CD05909181
:10072000CE0501968F739927892B19F48EEF80934C
:10073000E8008091CD059091CE0501969093CE056D
:100740008093CD0581E0089580E00895EF92FF92B7
:100750000F931F93CF93DF93F82E192FE62E042FBC
:1007600081E0860F880F0E94780383E00E9478035F
:10077000CF2DD12FEC0EFD2EF11CCE15DF05B9F0DB
:1007800007FF13C0FE0184910E947803182F80E0B8
:100790000E947803812321968111EFCFDF91CF91C1
:1007A0001F910F91FF90EF9008958881EDCF81E028
:1007B000F5CFDF92EF92FF920F931F93CF93DF93CA
:1007C000D82E8A01EB017B01E40EF51ECE15DF0564
:1007D00059F0D7FE12C0FE0184910E947803219641
:1007E0008111F4CF0FEF1FEFC801DF91CF911F915F
:1007F0000F91FF90EF90DF9008958881EECF0F93D7
:100800001F93CF93DF931F92CDB7DEB782E089832A
:1008100042E450E06CEA70E080E80E94D9030E9454
:10082000AA02DC0112960D911C910115110589F0A7
:10083000D801ED91FC910280F381E02DBE016F5F44
:100840007F4FC801099597FD04C0F8010085118507
:10085000ECCF89810F90DF91CF911F910F91089577
:10086000615030F02091F100FC0120830196F8CF17
:10087000289884E680939A0708958F929F92AF926A
:10088000BF92CF92DF92EF92FF920F931F93CF937D
:10089000DF936C017B018A0180910B01882309F4AD
:1008A00058C080919B07882309F453C08091D105DB
:1008B00080FF05C08091E00082608093E000E80145
:1008C000B12C8AEFA82E93E0892E2AE3922E20974E
:1008D00011F4BB20B9F10E949902811106C0AA94BB
:1008E000AA20B9F10E945403F2CF8C171D0611F013
:1008F0000CF08C2F9FB7F8948092E9002091E800CB
:1009000025FD02C09FBFE3CF282F30E0C21BD30BD1
:10091000F701815020F041914093F100FACFE20EAF
:10092000F31EBB2021F09092E800B12CEBCF809118
:10093000E80085FDE7CF9092E800BB24B3942097B0
:1009400009F3F3CF5D9884E68093D0051016110665
:100950003CF081E090E0F6019383828310E000E0B8
:10096000C801DF91CF911F910F91FF90EF90DF9021
:10097000CF90BF90AF909F908F900895CF93DF93CB
:100980001F92CDB7DEB76983DC01ED91FC91028047
:10099000F381E02D41E050E0BE016F5F7F4F09958C
:1009A0000F90DF91CF91089583E08093E9008091CB
:1009B000F200882319F08AE38093E80008950E94EA
:1009C000990290E00895CF93DF931F92CDB7DEB7E1
:1009D000FC018485958597FD08C02FEF3FEF358793
:1009E00024870F90DF91CF910895CE0101960E9448
:1009F0006F02019719F4898190E0F3CF8FEF9FEF99
:100A0000F0CF0F931F93CF93DF931F92CDB7DEB735
:100A10008C01FC018485958597FF0BC0CE01019662
:100A20000E946F02019771F4898190E0F801958727
:100A30008487F801848595850F90DF91CF911F9170
:100A40000F9108958FEF9FEFF1CFFC01848595857D
:100A500097FD0BC09FB7F89482E08093E9008091E6
:100A6000F2009FBF90E0019608959FB7F89482E04E
:100A70008093E9008091F2009FBF90E00895FC010F
:100A8000CF01309749F021912032D1F337EF320F67
:100A90003230B0F32D30A1F30895FC019C012F5C9E
:100AA0003F4F91919923A1F02E173F0779F0892F9D
:100AB0008F7D81548A31A8F380ED890F8B3088F3C4
:100AC00083ED890F823068F39F3559F380E00895F4
:100AD00081E008950F931F93CF93DF938C01C62F6E
:100AE000FC0182810E94F800C53608F0C4E6FFEFE1
:100AF000CF9FC001112464E670E00E94C716EB018D
:100B0000F8011281812F0E94F800209741F460E0E3
:100B1000812FDF91CF911F910F910C94BE02CF3F97
:100B2000D10511F461E0F4CFE12FF0E0E05EFE4F7B
:100B3000E491E150EF3008F080C0F0E0EE55FA4F5C
:100B40000C941C17B105BA05BF05C905D3051D06D0
:100B50001D061D06DD05E705F105FB0508061D065A
:100B6000100684B5806884BDC7BDDF91CF911F9109
:100B70000F91089584B5806284BDC8BDF6CF809181
:100B80008000806880938000D0938900C0938800A3
:100B9000ECCF80918000806280938000D0938B00A6
:100BA000C0938A00E2CF80918000886080938000AB
:100BB000D0938D00C0938C00D8CF80919000806836
:100BC00080939000D0939900C0939800CECF8091ED
:100BD0009000806280939000D0939B00C0939A0015
:100BE000C4CF80919000886080939000D0939D0046
:100BF000C0939C00BACF8091C00080688093C000F1
:100C00008091C0008F7B8093C000C093CF00ADCF98
:100C10008091C00080628093C000C093D000A5CFB7
:100C20008091C20088608093C2008091C2008B7F57
:100C30008093C200C093D20098CFC038D1050CF089
:100C400071CF65CF1F93CF93DF93EC01162F8A816D
:100C50000E94F800112339F06D818A81DF91CF91D4
:100C60001F910C94BE026E81F8CF3F924F925F921B
:100C70006F927F928F929F92AF92BF92CF92DF92AC
:100C8000EF92FF920F931F93CF93DF935C014B0181
:100C9000342E28013901E4E4F9E08085918595013D
:100CA000281B390BC90123E0959587952A95E1F713
:100CB00043E1489F9001499F300D1124C285D3859F
:100CC000C20FD31F0E946C03998288826A837B8340
:100CD0008C839D834E825F8268867986CA86DB8696
:100CE000EC86FD866E877F87888B998B3A8A632D89
:100CF000C501DF91CF911F910F91FF90EF90DF9091
:100D0000CF90BF90AF909F908F907F906F905F90AB
:100D10004F903F900C9422060F931F93CF93DF9335
:100D2000EC0180914C0990914D099E01281B390BD3
:100D3000C90123E0959587952A95E1F743E1489FFE
:100D40009001499F300D112400914E0910914F09D7
:100D5000020F131FF801118210820E946C03F80128
:100D6000628373838483958316821782108611862B
:100D7000128613861486158666877787808B918BFB
:100D8000128A8B819C818130910531F00297B9F0F4
:100D90008A810E94F8000BC08A810E94F8001A81A3
:100DA000812F0E94F80060E0812F0E94BE026E81B8
:100DB0008A81DF91CF911F910F910C94BE028A819D
:100DC00090910C0198130DC0EEE3F1E0E4919FEFD8
:100DD00090930C01E13061F040F0E33079F0E430C1
:100DE00099F060E00E94BE02D3CF10926E00F9CF5E
:100DF00090916F009D7F90936F00F3CF9091710061
:100E00009D7F90937100EDCF909172009F7B9093A6
:100E10007200E7CF42E050E06CE672E084EF98E0C9
:100E20000C943D04CF93DF93FC0101900020E9F77F
:100E30003197AF01481B590BBC0184EF98E00E9429
:100E40003D04EC010E940A078C0F9D1FDF91CF919A
:100E500008950C946016CF93DF93FC01C081D1817B
:100E6000CE010E942907833499F4CE0101960E9495
:100E70002907833469F4CE0102960E9429078E3433
:100E800039F4CE0103960E94290791E0813309F0DD
:100E900090E0892FDF91CF910895AF92BF92CF92CA
:100EA000DF92EF92FF920F931F93CF93DF937B011B
:100EB000EB0109900020E9F72197C61BD70B6E01C3
:100EC0002FEFC21AD20A62E270E00E940D198C0163
:100ED000009761F15C018FEFA81AB80AAE01B70163
:100EE000C5010E942819892BF1F4F501EC0FFD1FB3
:100EF00080818232C1F4C5018C0D9D1D0E943F0589
:100F0000009789F0FC0120812A3369F40196DF9172
:100F1000CF911F910F91FF90EF90DF90CF90BF90F6
:100F2000AF900C943F05C8010296CDCF90E080E0D1
:100F3000DF91CF911F910F91FF90EF90DF90CF90B5
:100F4000BF90AF9008950F931F93CF93DF938A01C3
:100F5000E901FA0110820E944D070097B9F1FC01E6
:100F60002081223299F5319650E040E059F180819C
:100F7000882309F18232F9F0BF016F5F7F4F8C3512
:100F800069F49181992351F06F5F7F4F923729F077
:100F9000943719F0892F9E3609F480E29A012F5F69
:100FA0003F4F2C173D0728F4F801E40FF51F80830D
:100FB000A901FB01DCCF4C175D0768F02197C00F3A
:100FC000D11F1882400F511FFA011082DF91CF917B
:100FD0001F910F910895EA01F2CFEF92FF920F93C4
:100FE0001F93CF93DF937A010E944D070097D9F0AA
:100FF000FC0120812232B9F4EC012196F701019025
:101000000020E9F731978F010E191F09A801B701D8
:10101000CE010E942819892B31F4C00FD11F81E025
:101020009881923209F080E0DF91CF911F910F916A
:10103000FF90EF900895CF93DF93D42FC52F0E9498
:101040004D070097E9F0FC0130E090E080E06AE0B5
:10105000219140ED420F4A3078F4689FA001699FCA
:10106000500D1124022E000C330B20533109C901FD
:10107000840F951F31E0ECCF332311F0D82FC92F07
:101080008D2F9C2FDF91CF9108952F923F924F92F9
:101090005F926F927F928F929F92AF92BF92CF9208
:1010A000DF92EF92FF920F931F93CF93DF93CDB711
:1010B000DEB7C553D1400FB6F894DEBF0FBECDBF2B
:1010C000198282EB97E00E943F05FC01019000200D
:1010D000E9F7AF01415051098417950750F4FA011F
:1010E0002291203251F137EF320F323030F12D3072
:1010F00021F18A01081B190B013C110500F18FE653
:1011000092E00E944301CB5CDE4F0FB6F894DEBF45
:101110000FBECDBFDF91CF911F910F91FF90EF9048
:10112000DF90CF90BF90AF909F908F907F906F9007
:101130005F904F903F902F900895AF01CDCFA801C1
:10114000BC01CE0101960E940419E1E0F0E0EC0F31
:10115000FD1FE00FF11F10828981811103C080E81B
:1011600092E0CFCFCE53DF4F19821882C25CD040BD
:10117000CC53DF4F1882C45CD04081E0CC51DF4FAC
:101180008883C45ED040CB51DF4F188219821A8207
:101190001B82C55ED040C751DF4F188219821A8268
:1011A0001B82C95ED040C351DF4F1882CD5ED04054
:1011B00080ED97E0C251DF4F99838883CE5ED040A7
:1011C000C051DF4F1882C05FD040CF50DF4F188230
:1011D000C15FD04002EC10E00C0F1D1F015C1F4FDF
:1011E0008EE892E0F80191838083CD5FDE4F198213
:1011F0001882C350D14050E040E06AE972E0CE016D
:1012000001960E941B087C018CE992E0F2E0EF1647
:10121000F10409F0B2C149EB52E06EEB72E0CE018D
:1012200001960E94ED07882371F083EC92E0F801AB
:101230009183808381E090E0CE53DF4F9983888350
:10124000C25CD04017C048EC52E06EEB72E0CE01B9
:1012500001960E94ED078823A1F188EC92E0F80145
:1012600091838083CE53DF4FF982E882C25CD04005
:1012700082E090E09C01215031092230310508F4D0
:1012800082C18C30910509F47EC10D97079708F44F
:1012900072C120E230E042EC50E04C0F5D1F4E5F27
:1012A0005F4F63EE73E0CE0101960E94A307CC531B
:1012B000DF4F8881C45CD040811177C18BED93E012
:1012C0005CC144ED52E06EEB72E0CE0101960E94EB
:1012D000ED07882341F084ED92E0F801918380834B
:1012E00083E090E0A9CF42EE52E06EEB72E0CE01D7
:1012F00001960E94ED07882341F082EE92E0F8010A
:101300009183808384E090E097CF40EF52E06EEBD2
:1013100072E0CE0101960E94ED07882341F080EF34
:1013200092E0F8019183808385E090E085CF40E0F2
:1013300053E06EEB72E0CE0101960E94ED07882328
:1013400041F080E093E0F8019183808386E090E0B3
:1013500073CF4EE053E06EEB72E0CE0101960E9437
:10136000ED07882361F08EE093E0E2ECF0E0EC0F13
:10137000FD1FFF969183808387E090E05DCF4CE175
:1013800053E06EEB72E0CE0101960E94ED078823D8
:1013900061F08CE193E0E2ECF0E0EC0FFD1FFF96D2
:1013A0009183808388E090E047CF46E253E06EEB84
:1013B00072E0CE0101960E94ED07882361F086E27B
:1013C00093E0E2ECF0E0EC0FFD1FFF969183808349
:1013D00089E090E031CF42E353E06EEB72E0CE0162
:1013E00001960E94ED07882361F082E393E0E2EC2E
:1013F000F0E0EC0FFD1FFF96918380838AE090E080
:101400001BCF4EE353E06EEB72E0CE0101960E94DB
:10141000ED078111B0C042E553E06EEB72E0CE0102
:1014200001960E94ED07882361F082E593E0E2ECEB
:10143000F0E0EC0FFD1FFF96918380838CE090E03D
:10144000FBCE41E653E06EEB72E0CE0101960E94C6
:10145000ED07882361F081E693E0E2ECF0E0EC0F29
:10146000FD1FFF96918380838DE090E0E5CE40E7FD
:1014700053E06EEB72E0CE0101960E94ED078823E7
:1014800061F080E793E0E2ECF0E0EC0FFD1FFF96E7
:10149000918380838EE090E0CFCE4DE753E06EEBFA
:1014A00072E0CE0101960E94ED07882361F08DE77E
:1014B00093E0E2ECF0E0EC0FFD1FFF969183808358
:1014C0008FE090E0B9CE4BE853E06EEB72E0CE01D6
:1014D00001960E94ED07882361F08BE893E0E2EC2F
:1014E000F0E0EC0FFD1FFF969183808380E190E098
:1014F000A3CE4BE953E06EEB72E0CE0101960E9461
:10150000ED07882361F08BE993E0E2ECF0E0EC0F6B
:10151000FD1FFF969183808381E190E08DCE49EAA3
:1015200053E06EEB72E0CE0101960E94ED07882336
:1015300061F089EA93E0E2ECF0E0EC0FFD1FFF962A
:101540009183808382E190E077CE48EB53E06EEBAD
:1015500072E0CE0101960E94ED07882361F088EBCE
:1015600093E0E2ECF0E0EC0FFD1FFF9691838083A7
:1015700083E190E061CE87EC93E0CD5FDE4F99830D
:101580008883C350D140CD5FDE4F88819981C3509D
:10159000D140009709F4ADC062EC70E06C0F7D1F84
:1015A0006E5F7F4F0E948C01AECD43EF53E06BEE38
:1015B00073E0CE0101960E94ED0781110AC041EF50
:1015C00053E06BEE73E0CE0101960E94ED0791E0CF
:1015D0008927CC51DF4F8883C45ED04050E040E083
:1015E0006AEF73E0CE0101960E941B086C01990F0F
:1015F000EE08FF08CB51DF4FC882D982EA82FB8216
:10160000C55ED040CE53DF4F08811981C25CD04007
:1016100040EB54E00530110511F044EF51E066E075
:1016200074E0CE0101960E941B08092E000CAA0B43
:10163000BB0BC751DF4F88839983AA83BB83C95EE5
:10164000D04050E040E062E174E0CE0101960E949B
:101650001B0897FD4AC0853691050CF048C0C35160
:10166000DF4F8883CD5ED04040ED57E06FE174E0FE
:10167000CE0101960E941B08C251DF4F99838883D7
:10168000CE5ED0400630110581F4CD28CE28CF287B
:1016900061F488EE93E0A0E0B0E0CB51DF4F8883A7
:1016A0009983AA83BB83C55ED040095011090230DB
:1016B000110508F068CFCB51DF4F88819981AA814D
:1016C000BB81C55ED040892B8A2B8B2B09F05BCF69
:1016D00088EE93E0A0E0B0E0CB51DF4F88839983A0
:1016E000AA83BB83C55ED0404ECF80E0B8CF84E6EE
:1016F000B6CFCE53DF4F08811981C25CD040023093
:10170000110509F077C0CB5FDE4F19821882C550F2
:10171000D14062E572E0CE018B5F9E4F0E941701BF
:10172000811103C08CE294E0ECCC6CEA75E0CE0150
:101730008B5F9E4F0E9417018823A1F361E474E040
:10174000CE018B5F9E4F0E941701882359F3609151
:10175000440970914509CE018B5F9E4F0E9417018D
:10176000882301F364E674E0CE018B5F9E4F0E94F4
:1017700017018823B9F26091460970914709CE019B
:101780008B5F9E4F0E941701882361F26BE774E024
:10179000CE018B5F9E4F0E941701882319F26CEADD
:1017A00075E0CE018B5F9E4F0E941701882309F4DC
:1017B000B9CF61E974E0CE018B5F9E4F0E941701A3
:1017C000882309F4AFCF6091480970914909CE018F
:1017D0008B5F9E4F0E941701882309F4A3CF60E31B
:1017E00075E0CE018B5F9E4F0E941701882309F49C
:1017F00099CF89CC70E060E083EC92E00130110574
:10180000C1F10C301105C1F580914A0990914B0945
:10181000892B19F487EC93E074CCE2ECF0E0EC0F48
:10182000FD1FFF960081118121E330E0AE014B5F87
:101830005E4F6CEB74E0CE0101960E94A307CB5F74
:10184000DE4F8881C550D140811103C081EA94E008
:1018500058CCE0914A09F0914B09CE018B5F9E4F25
:101860000995811103C084EB94E04BCC70E060E0FB
:10187000C8010E94EB0147CCC8010D97079750F2B1
:1018800040904C0950904D094114510481F1CC53C2
:10189000DF4F8881C45CD040882349F1C090500953
:1018A000D09051095201F12CE12C82EC882E912C20
:1018B0008C0E9D1EF2E08F0E911CCE14DF04B9F049
:1018C000150124183508F50160807180B401C30149
:1018D0000E9418199501285F3F4F892B29F0FFEFCF
:1018E000EF1AFF0A5901E9CFA114B10449F462ECDF
:1018F00070E06C0F7D1F6E5F7F4F8BED93E052CEDB
:1019000080914E0990914F090097C1F00350110941
:101910000830110598F4F801E057F34F0C941C17A8
:10192000980C980CA20C980C7D0DE30C200D200D4A
:10193000F50123813481232B09F489C0B30187EC9D
:1019400093E030CEF5012381348122303105B0F7A8
:10195000C751DF4FC880D980EA80FB80C95ED04084
:10196000CB51DF4F488059806A807B80C55ED04074
:1019700013E0359427941A95E1F723E1229D800125
:10198000239D100D1124080F191F0E946C0323E0E2
:1019900030E0F801318320836283738384839583ED
:1019A0004682578260867186C286D386E486F58633
:1019B00066877787808B918B81E0828B60E0C501A1
:1019C0000E946A056AC0F501238134812130310506
:1019D00009F0B4CFCB51DF4F488059806A807B80BB
:1019E000C55ED040C351DF4FF880CD5ED040A3E04C
:1019F00035942794AA95E1F723E1229D8001239D48
:101A0000100D1124080F191F85E090E0F801918353
:101A100080830E946C03F8016283738384839583BF
:101A200046825782608671861286138614861586D2
:101A300081E0F11001C080E0F801828B6F2DBFCFF3
:101A4000F501238134812230310509F077CF083048
:101A5000110508F073CFF801E05DF24F0C941C17EC
:101A6000380D580DA80C6C0D7D0DEA0C810D810D03
:101A7000CB51DF4F088119812A813B81C55ED0405F
:101A8000C12CD12C7601CC51DF4F4881C45ED040AF
:101A900061E070E0C5010E943506F5016081718149
:101AA000E2ECF0E0EC0FFD1FFF9680819181E1CE2A
:101AB000C751DF4FC880D980EA80FB80C95ED04023
:101AC000CB51DF4F088119812A813B81C55ED0400F
:101AD00041E062E070E0DECFCB51DF4F0881198139
:101AE0002A813B81C55ED040B6E9CB2ED12CE12CBA
:101AF000F12C41E064E070E0CDCFC5010E948C067E
:101B0000CCCFCB51DF4F488059806A807B80C55E47
:101B1000D040C251DF4FC880D980CE5ED040F3E0C4
:101B200035942794FA95E1F723E1229D8001239DC6
:101B3000100D1124080F191F86E090E0F801918321
:101B400080830E946C03F80162837383848395838E
:101B500046825782608671861286138614861586A1
:101B600081E0828BF50182810E94F800C114D104CA
:101B700021F4E0EDCE2EE7E0DE2EF501828190919A
:101B80000C019817D9F09F3F09F087CF80930C0183
:101B9000EEE3F1E014911F3F09F47FCF113009F417
:101BA000B5C008F496C0133009F4D2C0143009F45B
:101BB000F5C017FD72CF0E94F80009C0EEE3F1E016
:101BC000149117FD6ACF0E94F800112399F0712C2F
:101BD000612C60E072E18AE790E0A30196010E9427
:101BE000FD16BA01A901415051096109710912306C
:101BF00009F030C1F12CE12C60E072E18AE790E05D
:101C0000A70196010E94FD1629013A01BA01A90116
:101C100041505109610971094F3F51056105710535
:101C200009F00CF4FCC060E472E48FE090E0A701DE
:101C300096010E94FD16BA01A9014150510961099E
:101C40007109123009F0CCC04F3F51056105710593
:101C500009F00CF422CF60E970ED83E090E0A70179
:101C600096010E94FD1621303140410551050CF4CA
:101C700014CF68E478EE81E090E0A70196010E941D
:101C8000FD1621303140410551050CF406CF64E2C8
:101C900074EF80E090E0A70196010E94FD162150AC
:101CA0003109410951092F3F31054105510509F01D
:101CB00008F4F3CE62E17AE780E090E0A7019601B4
:101CC0000E94FD16BA01A90141505109610971092B
:101CD00061C114BC15BC94B5926094BD95B591607A
:101CE00095BD282F30E0F901E55AFE4FE491F0E070
:101CF000EE0FFF1FE15CFE4F45915491F901E6584C
:101D0000FE4FE491E093A10710E05DCF10928000B8
:101D10001092810090918100986090938100909141
:101D20008100916090938100282F30E0F901E55AFD
:101D3000FE4FE491F0E0EE0FFF1FE15CFE4F459196
:101D40005491F901E658FE4FE491E093A0073BCF90
:101D50001092900010929100909191009860909351
:101D6000910090919100916090939100282F30E024
:101D7000F901E55AFE4FE491F0E0EE0FFF1FE15C40
:101D8000FE4F4591549150939F0740939E07F90150
:101D9000E658FE4FE491E0939D0715CF1092C000E6
:101DA0001092C1009091C10098609093C1009091F1
:101DB000C10091609093C100282F30E0F901E55AED
:101DC000FE4FE491F0E0EE0FFF1FE15CFE4F459106
:101DD0005491F901E658FE4FE491E0939C07F3CE4D
:101DE0004F3F51056105710599F194F168E478EE72
:101DF00081E090E0A70196010E94FD16BA01A901B9
:101E00004150510961097109112309F4ABC04F3FD9
:101E100051056105710511F00CF0ACC039C081E0CD
:101E20001111CBC095B5987F892B85BD47BD8FEF2C
:101E30009FEFDC018093AE079093AF07A093B007AC
:101E4000B093B10780916E00826080936E0025CEC2
:101E500082E0E6CF91E04115510581E06807710508
:101E60007CF068E478EE81E090E0A30196010E94A6
:101E7000FD16BA01A901415051096109710993E0A8
:101E80001130D9F480918100887F892B8093810063
:101E900050938900409388008FEF9FEFDC0180937F
:101EA000AA079093AB07A093AC07B093AD078091BE
:101EB0006F00826080936F00F0CD1330D9F4809171
:101EC0009100887F892B80939100509399004093D3
:101ED00098008FEF9FEFDC018093A6079093A707F0
:101EE000A093A807B093A9078091710082608093A6
:101EF0007100D3CD143009F060C08091C100887F9B
:101F0000892B8093C1004093CF008FEF9FEFDC01BE
:101F10008093A2079093A307A093A407B093A5076B
:101F200080917200806480937200B7CD133069F2A3
:101F3000143049F3B2CD84E04F3F5105610571057E
:101F400009F008F46FCFB301A2019AE07595679587
:101F5000579547959A95D1F74150510961097109F3
:101F600085E060CF83E04F3F51056105710509F0C1
:101F70000CF458CF62E17AE780E090E0A701960187
:101F80000E94FD16BA01A901415051096109710968
:101F9000112389F24F3F51056105710571F068F019
:101FA000B301A2018AE075956795579547958A9583
:101FB000D1F74150510961097109113009F468CF15
:101FC0000CF0B4CF111169CD31CF1F93CF93DF93B4
:101FD000EC01162F0E946016181739F0612FCE0100
:101FE000DF91CF911F910C946816DF91CF911F91D3
:101FF0000895AF92BF92CF92DF92EF92FF920F932C
:102000001F93CF93DF9300910406109105060115ED
:10201000110569F4F12C8F2DDF91CF911F910F9154
:10202000FF90EF90DF90CF90BF90AF900895009712
:1020300089F3FC012081222369F3EC010E944D0504
:10204000882341F363E4F801868197810E94E50FBC
:10205000E0910406F09105068681978163E401967C
:102060000E94E50FE0910406F091050686819781B4
:102070006EE402960E94E50FE0910406F0910506D9
:102080008681978161E303960E94E50F5E01D12C62
:10209000C12CF501F1905F01E0910406F091050675
:1020A000008511850C0D1D1DC8010E946016F816D3
:1020B00021F06F2DC8010E946816FF2039F0FFEF54
:1020C000CF1ADF0A81E3C816D10419F7C0900406BD
:1020D000D0900506C60106960E942B07F82E88238D
:1020E00009F498CF83EDA82E85E0B82E10E000E02B
:1020F000E990F60180859185800F911F0E94290744
:10210000E81288CFF501E1925F01EE2029F00F5F20
:102110001F4F0133110561F7109203067CCF1F9208
:102120000F920FB60F9211242F933F938F939F938B
:10213000AF93BF938091860790918707A0918807FE
:10214000B09189073091850723E0230F2D3758F58B
:102150000196A11DB11D209385078093860790935A
:102160008707A0938807B093890780918A07909189
:102170008B07A0918C07B0918D070196A11DB11D11
:1021800080938A0790938B07A0938C07B0938D0759
:10219000BF91AF919F918F913F912F910F900FBE63
:1021A0000F901F90189526E8230F0296A11DB11DD0
:1021B000D2CF1F920F920FB60F9211248F939F933D
:1021C0008091E1009091E100937F9093E10083FF83
:1021D0000FC01092E90091E09093EB001092EC0098
:1021E00092E39093ED0010929B0798E09093F0009B
:1021F00082FF22C093E09093E9009091F20099232E
:1022000019F09AE39093E8009091D005992341F05A
:102210009091D00591509093D005911101C05D9A95
:1022200090919A07992341F090919A079150909339
:102230009A07911101C0289A84FF18C08091E2008A
:102240008E7E81608093E2008091E1008F7E80939A
:10225000E1008091D1058E7E80618093D1059F91B0
:102260008F910F900FBE0F901F90189580FFF7CFA2
:102270008091E2008E7E80618093E2008091E10097
:102280008E7E8093E1008091D1058E7E8160E5CFC6
:102290001F920F920FB60F921124CF92DF92EF92FE
:1022A000FF920F931F932F933F934F935F936F93DF
:1022B0007F938F939F93AF93BF93EF93FF93CF93AE
:1022C000DF93CDB7DEB76C97DEBFCDBF1092E900CC
:1022D0008091E80083FF25C068E0CE0145960E940A
:1022E000300482EF8093E8008D8987FF39C0909198
:1022F000E80090FFFCCF982F907609F034C19E89BA
:102300004F89588D2F89F88C911131C0803861F533
:102310008091D2058093F1001092F1008EEF8093AE
:10232000E8006C960FB6F894DEBF0FBECDBFDF910C
:10233000CF91FF91EF91BF91AF919F918F917F913D
:102340006F915F914F913F912F911F910F91FF904E
:10235000EF90DF90CF900F900FBE0F901F901895C9
:102360009EEF9093E800C7CF1092F100D5CF913047
:1023700059F48111D3CF4130510581F68091D205B6
:102380008D7F8093D205CACF933049F48111C6CF97
:102390004130510519F68091D2058260F2CF953017
:1023A00041F48091E80080FFFCCF20682093E30097
:1023B000B5CF963009F0A9C00B8D1C8D22E010928C
:1023C000E9001092CE051092CD05F2122EC01092A7
:1023D000CC051092CB050E94FF031F8299E09983E0
:1023E000FA8291E09E8390EA98879AEF99872091EC
:1023F000CD053091CE05275F3F4F3C832B838D83E6
:102400001092E9001092CE051092CD051093CC05E4
:102410000093CB0549E050E0BE016F5F7F4F80E045
:102420000E94D9030E94FF0379CF1093CC0500933B
:10243000CB050E94AA02DC0112960D911C91011598
:10244000110509F451C1D801ED91FC910480F58189
:10245000E02DBE016B5E7F4FC8010995009709F022
:102460003EC1F80100851185EACFF3E0FF120EC0EE
:102470008F89882309F440C0823061F440E862E12A
:102480008DE091E00E94A603811148CF81E2809304
:10249000EB0047CF813029F440E868E084E091E028
:1024A000F1CF833099F70E94AA02DC011296ED90D9
:1024B000FC908E010F5F1F4F6801E114F10479F069
:1024C000D701ED91FC910680F781E02DB801C7019D
:1024D0000995080F111DF701E084F184EECFD801B2
:1024E0001C92F60101900020E9F73197BF016C19A9
:1024F0007D0940E0C601C6CF6EEE70E0FB0144915D
:1025000050E080E80E94D90309CF973009F4BECF8C
:10251000983021F481E08093F10000CF993009F0E8
:10252000FDCE837009F0B2CFE6E2F1E081E031E068
:1025300096E32191222371F08093E9003093EB0020
:10254000DF0111972C912093EC009093ED008F5FA9
:10255000873079F78EE78093EA001092EA008F893E
:1025600080939B07DBCE8B8D9C8D1092E90010929F
:10257000CE051092CD059093CC058093CB05898D27
:10258000811192C08E899D89913A49F4813209F076
:102590007DCF47E050E064E071E080E0B3CF91325E
:1025A00009F074CF833269F48F89988DB0E0A0E090
:1025B0008093000190930101A0930201B093030165
:1025C000ADCE803269F48091E80082FFFCCF67E0F5
:1025D00084E091E00E9430048BEF8093E8009ECE6F
:1025E000823209F09BCE8F8980930B01EEEFFFE7DB
:1025F000859194918B3F9C4D51F1E0E0F8E0809102
:10260000040190910501A0910601B0910701803B62
:102610009440A105B105F1F480910B0180FD1AC031
:10262000EE3F8AE0F80789F587E797E79183808393
:10263000809160008093CF0588E19BE00FB6F8940D
:10264000A895809360000FBE9093600067CEEEEF78
:10265000FAE0D5CF808191818737974709F05ECE28
:10266000A895809160008861809360008091CF057B
:1026700080936000EE3F2AE0F20789F08091FE0A25
:102680009091FF0A9183808349CE80819181873721
:10269000980751F29093FF0A8093FE0AC5CF1092DB
:1026A000FF0A1092FE0A3ACE0E94AA02DC0112969C
:1026B0000D911C910115110509F4E8CED801ED9199
:1026C000FC910190F081E02DBE016B5E7F4FC8014F
:1026D0000995811123CEF80100851185EBCF1816DD
:1026E00019060CF41BCED2CEF1E0FF12BECE62EF83
:1026F00070E004CF1F920F920FB60F9211248F93A8
:102700009F93AF93BF93EF93FF938091A607909110
:10271000A707A091A807B091A907892B8A2B8B2B1B
:10272000A1F190919D07E0919E07F0919F07808114
:10273000892780838091A6079091A707A091A80779
:10274000B091A907181619061A061B069CF4809169
:10275000A6079091A707A091A807B091A907019794
:10276000A109B1098093A6079093A707A093A80792
:10277000B093A907FF91EF91BF91AF919F918F9176
:102780000F900FBE0F901F901895809171008D7F54
:102790008093710080919D07E0919E07F0919F07C3
:1027A0009081809589238083E5CF789484B5826079
:1027B00084BD84B5816084BD85B5826085BD85B5E5
:1027C000816085BD80916E00816080936E00109263
:1027D00081008091810082608093810080918100DE
:1027E000816080938100809180008160809380006F
:1027F000809191008260809391008091910081602E
:1028000080939100809190008160809390008091EE
:10281000C10084608093C1008091C1008260809378
:10282000C1008091C10081608093C1008091C3008C
:1028300081608093C3008091C00082608093C0005B
:102840008091C20081608093C20080917A00846090
:1028500080937A0080917A00826080937A008091E0
:102860007A00816080937A0080917A0080688093FA
:102870007A0010929B071092D2051092D105809198
:10288000D70081608093D70080EA8093D80089B513
:10289000806189BD89B5826089BD09B400FEFDCF24
:1028A0000E9454038091D8008F7C80618093D8006F
:1028B0008091E000807F8093E0008091E1008E7E37
:1028C0008093E1008DE08093E200559A209A8CE29B
:1028D00091E0909305068093040682E391E00E94C4
:1028E0002B0703ED15E0C4E0D0E0811187C041E380
:1028F00050E067EC74E083ED95E00E943619109289
:10290000030687EE94E090934509809344098FEF86
:1029100094E0909347098093460983ED95E0909366
:1029200049098093480989EF9FE090934B09809370
:102930004A0986E391E090934D0980934C0986E023
:1029400096E090934F0980934E0984E190E0909334
:102950005109809350091092530910925209C6E010
:10296000D6E006E311E062E8E62E67E0F62E198273
:1029700018821A821B821C821D821E821F82188668
:1029800019861A861B861C861D861E861F86188A37
:10299000198A1A8AC8010E948C066396085F1F4F25
:1029A000EC16FD0621F78FEF9FEF909301098093BE
:1029B000000910928307109282071092B2071092BA
:1029C000840750E0252E50E0352E84EF98E00E94D9
:1029D0002505181619060CF089C084EF98E00E94AE
:1029E000E30490918407992319F18A3071F71092CA
:1029F0008407109283071092820722C0CE010E94A2
:102A00006016D8018D938D01882321F02196C4335F
:102A1000D105A1F7109203068091D305882309F40C
:102A200066CF83ED95E00E944D0581116ACF5FCF9F
:102A30008A30D9F48091820790918307009719F426
:102A40001092B207C2CF8E54984FFC0110821092A0
:102A500033080E944508811105C085EF91E00E946E
:102A60001207C7CF83E398E0FACF8D3009F4ADCFDA
:102A700020918207309183072038310540F16EE2C2
:102A800070E090E080E00E944718EC0150E040E0E8
:102A9000009739F0188265E075E00E9421194DE237
:102AA00050E0BE0184EF98E00E943D040E940A07B6
:102AB000209719F0CE010E94BE1710928307109242
:102AC00082071092B207F1E0F09384077ECFF901FC
:102AD000EE54F84F80832F5F3F4F3093830720934E
:102AE00082072E54384FD9011C926FCF80914E0926
:102AF00090914F09892B09F4C7C080914C0990919E
:102B00004D09892B09F4C0C0F12CE12CD12CC12C2A
:102B10008091500990915109C816D90608F0B4C0A7
:102B200000914C0910914D090E0D1F1D970143E0B6
:102B3000359527954A95E1F7B3E1B29FC001B39F60
:102B4000900D1124C0914E09D0914F09C80FD91F83
:102B50000E946C03AB01BC018E819F81A885B98561
:102B60000097A105B105D9F04A805B806C807D801B
:102B70004A015B0184189508A608B70824013501AD
:102B8000481659066A067B0650F0C8010E948C065A
:102B90004FEFC41AD40A88E0E80EF11CB9CF88813F
:102BA00099818330910509F041C04A845B846C842B
:102BB0007D8488EC481651046104710428F498EC73
:102BC000492E512C612C712C8A819B81AC81BD8155
:102BD0004A015B01881A990AAA0ABB0AC501B40115
:102BE000A30192010E94DB169B01AC01530142013B
:102BF000B694A7949794879482169306A406B50674
:102C000040F4D301C201821B930BA40BB50B9C01B2
:102C1000AD01A4E6B0E00E947616A50194010E94E1
:102C2000DB16622FC8010E946A05B2CF823091057F
:102C300019F0049709F0ACCF8A859B85AC85BD85DA
:102C40000097A105B10509F4A3CF4E845F8468887D
:102C500079884A015B0184189508A608B708240101
:102C60003501481659066A067B0608F491CF4E874F
:102C70005F87688B798B6A899924939469256A8B1D
:102C8000C8010E94220684CF2114310409F49DCE8C
:102C90000E9400009ACEE4EFF8E01382128288EEE0
:102CA00093E0A0E0B0E084839583A683B78387E1B7
:102CB00091E0918380838FEF9FEF958784870895BC
:102CC000F999FECF92BD81BDF89A992780B50895F4
:102CD000262FF999FECF1FBA92BD81BD20BD0FB638
:102CE000F894FA9AF99A0FBE019608950E94B816C0
:102CF000A59F900DB49F900DA49F800D911D112450
:102D000008952F923F924F925F926F927F928F928F
:102D10009F92AF92BF92CF92DF92EF92FF920F936A
:102D20001F93CF93DF93CDB7DEB7CA1BDB0B0FB674
:102D3000F894DEBF0FBECDBF09942A883988488831
:102D40005F846E847D848C849B84AA84B984C884C7
:102D5000DF80EE80FD800C811B81AA81B981CE0FBE
:102D6000D11D0FB6F894DEBF0FBECDBFED010895A3
:102D7000A29FB001B39FC001A39F700D811D1124BC
:102D8000911DB29F700D811D1124911D0895AA1BE4
:102D9000BB1B51E107C0AA1FBB1FA617B70710F046
:102DA000A61BB70B881F991F5A95A9F78095909578
:102DB000BC01CD010895A1E21A2EAA1BBB1BFD0187
:102DC0000DC0AA1FBB1FEE1FFF1FA217B307E4070A
:102DD000F50720F0A21BB30BE40BF50B661F771F62
:102DE000881F991F1A9469F7609570958095909542
:102DF0009B01AC01BD01CF010895052E97FB1EF488
:102E000000940E94141757FD07D00E94DB1607FCA0
:102E100003D04EF40C94141750954095309521959D
:102E20003F4F4F4F5F4F08959095809570956195F6
:102E30007F4F8F4F9F4F0895EE0FFF1F0590F49126
:102E4000E02D09940F931F93CF93DF938230910568
:102E500010F482E090E0E0915609F091570930E0DB
:102E600020E0B0E0A0E0309799F42115310509F495
:102E70004AC0281B390B24303105D8F58A819B8143
:102E80006115710589F1FB0193838283FE0111C0F5
:102E9000408151810281138148175907E0F048179A
:102EA000590799F4109761F012960C9312971396A4
:102EB0001C933296CF01DF91CF911F910F9108950E
:102EC0000093560910935709F4CF2115310551F09D
:102ED0004217530738F0A901DB019A01BD01DF0158
:102EE000F801C1CFEF01F9CF9093570980935609AC
:102EF000CDCFFE01E20FF31F819391932250310950
:102F000039832883D7CF2091540930915509232B39
:102F100041F420910F013091100130935509209315
:102F2000540920910D0130910E012115310541F414
:102F30002DB73EB74091110150911201241B350B62
:102F4000E0915409F0915509E217F307A0F42E1B04
:102F50003F0B2817390778F0AC014E5F5F4F2417FD
:102F6000350748F04E0F5F1F5093550940935409A1
:102F7000819391939FCFF0E0E0E09CCFCF93DF93DC
:102F80000097E9F0FC01329713821282A091560952
:102F9000B0915709ED0130E020E01097A1F42081B5
:102FA0003181820F931F20915409309155092817C0
:102FB000390709F061C0F0935509E0935409DF9196
:102FC000CF910895EA01CE17DF07E8F54A815B81CA
:102FD0009E0141155105B1F7E901FB83EA8349914F
:102FE0005991C40FD51FEC17FD0761F480819181C1
:102FF0000296840F951FE9019983888382819381CA
:103000009B838A83F0E0E0E012968D919C91139768
:103010000097B9F52D913C911197CD010296820F41
:10302000931F20915409309155092817390739F613
:10303000309751F51092570910925609B0935509DF
:10304000A0935409BCCFD383C28340815181840FA4
:10305000951FC817D90761F44E5F5F4F888199812A
:10306000480F591F518340838A819B8193838283B8
:103070002115310509F0B0CFF0935709E0935609B7
:103080009ECFFD01DC01C0CF13821282D7CFB0E00A
:10309000A0E0EDE4F8E10C9483168C01009751F464
:1030A000CB010E9422178C01C801CDB7DEB7E0E149
:1030B0000C949F16FC01E60FF71F9C01225031096A
:1030C000E217F30708F49DC0D901CD91DC91119767
:1030D000C617D70798F0C530D10530F3CE01049755
:1030E0008617970708F3C61BD70B2297C193D19376
:1030F0006D937C93CF010E94BE17D6CF5B01AC1AB3
:10310000BD0A4C018C0E9D1EA0915609B091570925
:10311000512C412CF12CE12C109731F58091540960
:10312000909155098815990509F05CC04616570617
:1031300008F058C080910D0190910E01009741F464
:103140008DB79EB74091110150911201841B950BD0
:10315000E817F90708F055C0F0935509E0935409B2
:10316000F90171836083A0CF8D919C911197129684
:103170006C90129713967C901397A815B90559F582
:103180006C0142E0C40ED11CCA14DB0420F1AC0176
:103190004A195B09DA011296159780F062827382F0
:1031A00051834083D9016D937C93E114F10471F054
:1031B000D7011396FC93EE93129776CF22968C0F3D
:1031C0009D1FF90191838083F301EFCFF09357099D
:1031D000E093560969CF4816590608F42C017D0181
:1031E000D3019ACFCB010E9422177C01009749F0AE
:1031F000AE01B8010E940419C8010E94BE178701E0
:1032000053CF10E000E050CFFB01DC0102C0019081
:103210000D9241505040D8F70895FC0181918617D6
:1032200021F08823D9F7992708953197CF01089580
:10323000FB01DC018D91019080190110D9F3990BEC
:103240000895FB01DC0101900D920020E1F7089543
:10325000FB01DC014150504030F08D91019080190C
:1032600019F40020B9F7881B990B0895FB01DC01C4
:103270004150504048F001900D920020C9F701C024
:0E3280001D9241505040E0F70895F894FFCFA2
:10328E00FFFFFFFF00E1000000000000FF000058FC
:10329E0009800000000000BE043D04DF04D40425B4
:1032AE0005E304010500C18081000000E704FF046E
:1032BE00C7040000040033050000000100003A05B9
:1032CE000100000100004105020000010000480558
:1032DE000300000100004F05040000010000560528
:1032EE000500000100005D050600000100006405F8
:1032FE000700000100006B050800000100007205C8
:10330E0009000001000079050A0000010000810596
:10331E000E000001000089050F000001000091055C
:10332E001000000100009905120000010000A00528
:10333E00130000010000A705140000010000AE05F7
:10334E00150000010000B505030100010000BC05D9
:10335E00090200010000756E6B6E6F776E5F65720D
:10336E00726F72007B226F6B223A66616C73652CF2
:10337E002276223A007B226F6B223A66616C73656D
:10338E002C2276223A322C226572726F72223A22E7
:10339E00726573706F6E73655F746F6F5F6C6F6E57
:1033AE0067227D002C226572726F72223A220072A1
:1033BE006573706F6E73655F746F6F5F6C6F6E6742
:1033CE0000222C226368616E6E656C223A22006FB9
:1033DE006B007B226F6B223A747275652C227622FB
:1033EE003A002C2274797065223A22000D0A00638D
:1033FE006F6D6D616E645F746F6F5F6C6F6E670083
:10340E00656D7074795F636F6D6D616E6400756E5E
:10341E00737570706F72746564007600756E737577
:10342E0070706F727465645F70726F746F636F6CBF
:10343E005F76657273696F6E0070696E670074797E
:10344E00706500706F6E67006465766963655F69AD
:10345E006E666F006469676974616C5F7772697418
:10346E0065006469676974616C5F626C696E6B009C
:10347E006469676974616C5F627265617468650026
:10348E006469676974616C5F70756C736500636CF9
:10349E006561725F6368616E6E656C0070776D5FFB
:1034AE0077726974650062757A7A65725F626565B6
:1034BE00700062757A7A65725F746F6E6500616412
:1034CE00647265737361626C655F6C65645F73656E
:1034DE0074007365745F6465766963655F756964AE
:1034EE0000646973706C61795F73746174757300D5
:1034FE00646973706C61795F63617264006469738F
:10350E00706C61795F6C696E657300646973706C61
:10351E0061795F72756E74696D6500646973706C44
:10352E0061795F636C6561720062757A7A65725F4C
:10353E007061747465726E006465766963655F634D
:10354E006F6E74726F6C00756E737570706F7274CF
:10355E0065645F636F6D6D616E6400756E6B6E6F2B
:10356E00776E5F6368616E6E656C0073746174650F
:10357E0000696E6163746976650064757261746961
:10358E006F6E5F6D7300696E74657276616C5F6DE0
:10359E007300647574795F70657263656E7400662E
:1035AE0072657175656E63795F687A0064657669B8
:1035BE0063655F696E666F5F746F6F5F6C6F6E676A
:1035CE00002C2274797065223A22646576696365EF
:1035DE005F696E666F222C22626F6172645F69642E
:1035EE00223A2200222C226669726D776172655F23
:1035FE0076657273696F6E223A2200222C227072E7
:10360E006F746F636F6C5F76657273696F6E223A5B
:10361E00002C226465766963655F756964223A22BF
:10362E00006D697373696E675F6465766963655F64
:10363E0075696400696E76616C69645F646576694C
:10364E0063655F75696400737061726B66756E2D6C
:10365E0070726F2D6D6963726F2D333275343A6CE3
:10366E00696D6974656400737061726B66756E2D39
:10367E0070726F2D6D6963726F2D33327534003039
:10368E002E322E30007B226F6B223A66616C736590
:10369E002C2276223A322C226572726F72223A22D4
:1036AE00636F6D6D616E645F746F6F5F6C6F6E676D
:1036BE00227D0070696E2E64300070696E2E64314A
:1036CE000070696E2E64320070696E2E6433007065
:1036DE00696E2E64340070696E2E64350070696EEA
:1036EE002E64360070696E2E64370070696E2E641B
:1036FE00380070696E2E64390070696E2E64313038
:10370E000070696E2E6431340070696E2E6431352E
:10371E000070696E2E6431360070696E2E61300055
:10372E0070696E2E61310070696E2E6132007069A3
:10373E006E2E61330070776D2E64330062757A7A67
:06374E0065722E643900D3
:00000001FF
