:100000000C945D000C9485000C9485000C94850084
:100010000C9485000C9485000C9485000C9485004C
:100020000C9485000C9485000C9485000C9485003C
:100030000C9485000C9485000C9485000C9485002C
:100040000C94DD0A0C9485000C944D0B0C94270B3A
:100050000C9485000C9485000C9485000C9485000C
:100060000C9485000C94850000000008000201003B
:100070000003040700000000000000000000000072
:10008000250028002B0000000000240027002A0083
:10009000040404040404040402020202020203032E
:1000A0000303030301020408102040800102040836
:1000B0001020010204081020D60D11241FBECFEF1E
:1000C000D8E0DEBFCDBF27E0ACE7B4E001C01D92B1
:1000D000A735B207E1F714E0A0E0B1E0E6E9F1E20C
:1000E00002C005900D92AC37B107D9F710E0CDE50D
:1000F000D0E004C02197FE010E94A00ECC35D107AC
:10010000C9F70E947F0B0C94C9100C94000090E07A
:10011000FC01EC55FF4F249180579F4FFC018491C7
:10012000882399F090E0880F991FFC01EA57FF4F50
:10013000A591B491FC01E458FF4F859194918FB73C
:10014000F894EC91E22BEC938FBF0895CF93DF935B
:10015000DC0161157105F9F0FB0121918D919C91F4
:1001600011972223C1F0AC014F5F5F4F413C510515
:1001700030F01092A70680E0DF91CF910895895169
:100180009A4FEC0128838D919C91119701961196BD
:100190009C938E93E2CFED91FC91E951FA4F10823E
:1001A00081E0EACF0F931F93CF93DF9300D000D06D
:1001B000CDB7DEB78C011C821B8268E771E0CE01EF
:1001C00003960E94A600811111C01A82198269E863
:1001D00071E0CE0101960E94A6000F900F900F9043
:1001E0000F90DF91CF911F910F9108956CE074E013
:1001F000CE0103960E94A600882339F368EB71E0D4
:10020000CE0103960E94A6008823F9F2011511057C
:1002100011F40AE611E0B801CE0103960E94A6008F
:10022000882399F269E374E0CE0103960E94A60048
:10023000882359F2D2CFEF92FF920F931F93CF935F
:10024000DF9300D0CDB7DEB78C017B01611571055E
:1002500021F0FB01808181110CC0C8010E94D200F5
:100260000F900F90DF91CF911F910F91FF90EF9022
:1002700008951A82198268E771E0CE0101960E9402
:10028000A600811103C083EC91E0E8CF6CE074E03C
:10029000CE0101960E94A6008823A9F368EB71E0C5
:1002A000CE0101960E94A600882369F3011511056D
:1002B00011F40AE611E0B801CE0101960E94A600F1
:1002C000882309F365ED71E0CE0101960E94A60036
:1002D0008823C9F2B701CE0101960E94A6008823A7
:1002E00091F269E374E0CE0101960E94A600882392
:1002F00051F2B6CFEF92FF920F931F93CF93DF93FC
:1003000000D0CDB7DEB78C017B016115710509F412
:1003100051C0FB018081882309F44CC01A821982E4
:1003200066EE71E0CE0101960E94A60081110DC01B
:1003300083EC91E00E94D2000F900F90DF91CF915B
:100340001F910F91FF90EF9008956CE074E0CE0143
:1003500001960E94A600882359F366EF71E0CE0152
:1003600001960E94A600882319F30115110511F4C6
:1003700003EE11E0B801CE0101960E94A600882389
:10038000B9F265ED71E0CE0101960E94A600B701B9
:10039000882371F2CE0101960E94A600882341F2C3
:1003A00069E374E0CE0101960E94A600882309F457
:1003B000BFCFC2CF1A82198266EE71E0CE010196DC
:1003C0000E94A600882309F4B3CF6CE074E0CE014C
:1003D00001960E94A600882309F4AACF66EF71E077
:1003E000CE0101960E94A600882309F4A1CF011531
:1003F000110511F403EE11E0B801CCCF90E0FC013F
:10040000E859FF4F2491FC01EC55FF4F3491FC015A
:10041000E057FF4FE491EE23C9F0222339F0233057
:1004200001F1A8F4213019F1223029F1F0E0EE0FAA
:10043000FF1FE458FF4FA591B4918FB7F894EC914A
:10044000611126C030953E233C938FBF089527301D
:10045000A9F02830C9F0243049F7809180008F7DC1
:1004600003C0809180008F7780938000DFCF84B5B8
:100470008F7784BDDBCF84B58F7DFBCF8091B000BB
:100480008F778093B000D2CF8091B0008F7DF9CF6D
:100490003E2BDACF2FB7F894609162057091630517
:1004A00080916405909165052FBF0895AF92BF922A
:1004B000CF92DF92EF92FF920F931F93CF93DF9330
:1004C0006C017B018B01040F151FEB015E01AE185F
:1004D000BF08C017D10759F06991D601ED91FC9181
:1004E0000190F081E02DC6010995892B79F7C501AE
:1004F000DF91CF911F910F91FF90EF90DF90CF9000
:10050000BF90AF900895FC01538D448D252F30E0AE
:10051000842F90E0821B930B541710F0CF96089510
:1005200001970895FC01918D828D981761F0A28D3D
:10053000AE0FBF2FB11D5D968C91928D9F5F9F7303
:10054000928F90E008958FEF9FEF0895FC01918DB9
:10055000828D981731F0828DE80FF11D858D90E026
:1005600008958FEF9FEF0895FC01918D228D892FC3
:1005700090E0805C9F4F821B91098F7399270895AB
:1005800088EA96E00E94B40221E0892B09F420E079
:10059000822F089580E090E0892B29F00E94C0020C
:1005A00081110C9400000895FC01A48DA80FB92FAF
:1005B000B11DA35ABF4F2C91848D90E001968F738B
:1005C0009927848FA689B7892C93A089B1898C91AA
:1005D000837080648C93938D848D981306C00288F9
:1005E000F389E02D80818F7D80830895EF92FF92C3
:1005F0000F931F93CF93DF93EC0181E0888F9B8D46
:100600008C8D98131AC0E889F989808185FF15C0FF
:100610009FB7F894EE89FF896083E889F989808122
:100620008370806480839FBF81E090E0DF91CF91F1
:100630001F910F91FF90EF900895F62E0B8D10E013
:100640000F5F1F4F0F731127E02E8C8D8E110CC082
:100650000FB607FCFACFE889F989808185FFF5CFCD
:10066000CE010E94D402F1CFEB8DEC0FFD2FF11DD6
:10067000E35AFF4FF0829FB7F8940B8FEA89FB890A
:1006800080818062CFCFCF93DF93EC01888D882368
:10069000B9F0AA89BB89E889F9898C9185FD03C0E5
:1006A000808186FD0DC00FB607FCF7CF8C9185FFCA
:1006B000F2CF808185FFEDCFCE010E94D402E9CF39
:1006C000DF91CF910895FC01CF01309749F021913E
:1006D0002032D1F337EF320F3230B0F32D30A1F3A7
:1006E0000895FC019C012F5C3F4F91919923A1F04B
:1006F0002E173F0779F0892F8F7D81548A31A8F317
:1007000080ED890F8B3088F383ED890F823068F399
:100710009F3559F380E0089581E008950F931F936A
:10072000CF93DF938C01C62FFC0182810E9487004A
:10073000C53608F0C4E6FFEFCF9FC001112464E680
:1007400070E00E946A0EEB01F8011281812F0E9475
:100750008700209741F460E0812FDF91CF911F91B6
:100760000F910C94FE01CF3FD10511F461E0F4CF5D
:10077000E12FF0E0E859FF4FE491E33039F140F424
:10078000E130B1F0E230E9F0C038D1057CF7E3CFD9
:10079000E73031F1E83061F1E430B1F78091800069
:1007A000806280938000D0938B00C0938A0004C045
:1007B00084B5806884BDC7BDDF91CF911F910F9133
:1007C000089584B5806284BDC8BDF6CF8091800055
:1007D000806880938000D0938900C0938800ECCF1C
:1007E0008091B00080688093B000C093B300E4CFE4
:1007F0008091B00080628093B000C093B400DCCFE1
:100800001F93CF93DF93EC01162F8A810E948700FC
:10081000112339F06D818A81DF91CF911F910C9462
:10082000FE016E81F8CF3F924F925F926F927F925E
:100830008F929F92AF92BF92CF92DF92EF92FF92F0
:100840000F931F93CF93DF935C014B01342E28014C
:100850003901E5E4F7E0808591859501281B390B86
:10086000C90123E0959587952A95E1F743E1489FD3
:100870009001499F300D1124C285D385C20FD31F2B
:100880000E944A02998288826A837B838C839D833B
:100890004E825F8268867986CA86DB86EC86FD8614
:1008A0006E877F87888B998B3A8A632DC501DF918C
:1008B000CF911F910F91FF90EF90DF90CF90BF905D
:1008C000AF909F908F907F906F905F904F903F90F0
:1008D0000C9400040F931F93CF93DF93EC0180914E
:1008E0004D0790914E079E01281B390BC90123E04B
:1008F000959587952A95E1F743E1489F9001499F97
:10090000300D112400914F0710915007020F131F53
:10091000F801118210820E944A02F80162837383F7
:100920008483958316821782108611861286138619
:100930001486158666877787808B918B128A8B81C8
:100940009C81019799F48A810E9487001A81812FE6
:100950000E94870060E0812F0E94FE016E818A81E3
:10096000DF91CF911F910F910C94FE018A810E941B
:100970008700F4CF42E050E060E072E088EA96E061
:100980000C945602CF93DF93FC0101900020E9F70D
:100990003197AF01481B590BBC0188EA96E00E94D1
:1009A0005602EC010E94BA048C0F9D1FDF91CF917B
:1009B00008950C94030ECF93DF93FC01C081D18185
:1009C000CE010E94D904833499F4CE0101960E948D
:1009D000D904833469F4CE0102960E94D9048E347E
:1009E00039F4CE0103960E94D90491E0813309F0D5
:1009F00090E0892FDF91CF910895AF92BF92CF926F
:100A0000DF92EF92FF920F931F93CF93DF937B01BF
:100A1000EB0109900020E9F72197C61BD70B6E0167
:100A20002FEFC21AD20A62E270E00E9491108C018C
:100A3000009761F15C018FEFA81AB80AAE01B70107
:100A4000C5010E94AC10892BF1F4F501EC0FFD1FDC
:100A500080818232C1F4C5018C0D9D1D0E9463030B
:100A6000009789F0FC0120812A3369F40196DF9117
:100A7000CF911F910F91FF90EF90DF90CF90BF909B
:100A8000AF900C946303C8010296CDCF90E080E054
:100A9000DF91CF911F910F91FF90EF90DF90CF905A
:100AA000BF90AF9008950F931F93CF93DF93EA0108
:100AB000890118820E94FD040097B1F0FC01208199
:100AC000223291F43196DE0101501109819188237F
:100AD00051F0823241F09D012C1B3D0B2017310754
:100AE00010F48D93F3CF1C92DF91CF911F910F9152
:100AF0000895EF92FF920F931F93CF93DF937A01A4
:100B00000E94FD040097D9F0FC0120812232B9F443
:100B1000EC012196F70101900020E9F731978F0150
:100B20000E191F09A801B701CE010E94AC10892B34
:100B300031F4C00FD11F81E09881923209F080E03A
:100B4000DF91CF911F910F91FF90EF900895CF9378
:100B5000DF93D42FC52F0E94FD040097E9F0FC011C
:100B600030E090E080E06AE0219140ED420F4A30B1
:100B700078F4689FA001699F500D1124022E000C8B
:100B8000330B20533109C901840F951F31E0ECCF9D
:100B9000332311F0D82FC92F8D2F9C2FDF91CF91A8
:100BA00008952F923F924F925F926F927F928F9211
:100BB0009F92AF92BF92CF92DF92EF92FF920F93EC
:100BC0001F93CF93DF93CDB7DEB7C553D1400FB698
:100BD000F894DEBF0FBECDBF198286E695E00E9475
:100BE0006303FC0101900020E9F7AF014150510976
:100BF0008417950750F4FA012291203251F137EF12
:100C0000320F323030F12D3021F18A01081B190BDF
:100C1000013C110500F183E092E00E94D200CB5C20
:100C2000DE4F0FB6F894DEBF0FBECDBFDF91CF9180
:100C30001F910F91FF90EF90DF90CF90BF90AF90FA
:100C40009F908F907F906F905F904F903F902F90EC
:100C50000895AF01CDCFA801BC01CE0101960E943D
:100C60008810E1E0F0E0EC0FFD1FE00FF11F1082B3
:100C70008981811103C084E192E0CFCFCE53DF4F51
:100C800019821882C25CD040CC53DF4F1882C45CFA
:100C9000D04081E0CC51DF4F8883C45ED040CB513F
:100CA000DF4F188219821A821B82C55ED040C7515D
:100CB000DF4F188219821A821B82C95ED040C3514D
:100CC000DF4F1882CD5ED040C251DF4F19821882AB
:100CD000CE5ED040C051DF4F1882C05FD040CF50B1
:100CE000DF4F1882C15FD04002EC10E00C0F1D1FD7
:100CF000015C1F4F82E292E0F80191838083CD5F17
:100D0000DE4F19821882C350D14050E040E06EE2BD
:100D100072E0CE0101960E94A7057C0180E392E07B
:100D2000F2E0EF16F10409F0FBC04DE452E062E599
:100D300072E0CE0101960E947905882371F087E563
:100D400092E0F8019183808381E090E0CE53DF4F01
:100D500099838883C25CD04017C04CE552E062E5BD
:100D600072E0CE0101960E947905882379F18CE525
:100D700092E0F80191838083CE53DF4FF982E882BD
:100D8000C25CD04082E090E09C01215031092230C9
:100D9000310508F4CBC00C9709F4C8C020E230E05C
:100DA00042EC50E04C0F5D1F4E5F5F4F61E173E01E
:100DB000CE0101960E945305CC53DF4F8881C45C5D
:100DC000D0408111C5C089E093E0AAC048E652E056
:100DD00062E572E0CE0101960E947905882341F018
:100DE00088E692E0F8019183808383E090E0AECFC3
:100DF00046E752E062E572E0CE0101960E94790575
:100E0000882341F086E792E0F8019183808384E0B3
:100E100090E09CCF44E852E062E572E0CE0101969A
:100E20000E947905882341F084E892E0F8019183DB
:100E3000808385E090E08ACF44E952E062E572E089
:100E4000CE0101960E947905882341F084E992E061
:100E5000F8019183808386E090E078CF42EA52E007
:100E600062E572E0CE0101960E947905882361F067
:100E700082EA92E0E2ECF0E0EC0FFD1FFF96918336
:100E8000808387E090E062CF40EB52E062E572E061
:100E9000CE0101960E947905882361F080EB92E0F3
:100EA000E2ECF0E0EC0FFD1FFF969183808388E079
:100EB00090E04CCF4AEB52E062E572E0CE01019641
:100EC0000E94790581112AC046EC52E062E572E089
:100ED000CE0101960E947905811120C042ED52E0B9
:100EE00062E572E0CE0101960E947905811116C07B
:100EF00046EE52E062E572E0CE0101960E9479056D
:100F0000882361F086EE92E0E2ECF0E0EC0FFD1F4A
:100F1000FF96918380838CE090E018CF85EF92E07C
:100F2000CD5FDE4F99838883C350D140CD5FDE4FC4
:100F300088819981C350D140009709F49EC062EC2A
:100F400070E06C0F7D1F6E5F7F4F0E941B0167CEAC
:100F500041E253E069E173E0CE0101960E94790518
:100F600081110AC04FE153E069E173E0CE010196BF
:100F70000E94790591E08927CC51DF4F8883C45EB8
:100F8000D04050E040E068E273E0CE0101960E945C
:100F9000A7056C01990FEE08FF08CB51DF4FC882FF
:100FA000D982EA82FB82C55ED040CE53DF4F0881F2
:100FB0001981C25CD04040EB54E00530110511F0BE
:100FC00044EF51E064E373E0CE0101960E94A7056F
:100FD000092E000CAA0BBB0BC751DF4F88839983E6
:100FE000AA83BB83C95ED04050E040E060E473E078
:100FF000CE0101960E94A70597FD3BC0853691055D
:10100000D4F5C351DF4F8883CD5ED0400630110543
:1010100081F4CD28CE28CF2861F488EE93E0A0E0BB
:10102000B0E0CB51DF4F88839983AA83BB83C55E31
:10103000D040095011090230110508F077CFCB518B
:10104000DF4F88819981AA81BB81C55ED040892B01
:101050008A2B8B2B09F06ACF88EE93E0A0E0B0E0FA
:10106000CB51DF4F88839983AA83BB83C55ED04071
:101070005DCF80E0C6CF84E6C4CFCE53DF4F08817A
:101080001981C25CD0400230110509F077C0CB5FF6
:10109000DE4F19821882C550D14066EE71E0CE0154
:1010A0008B5F9E4F0E94A600811103C08DE493E0E8
:1010B000B4CD6CE074E0CE018B5F9E4F0E94A60021
:1010C0008823A1F362E673E0CE018B5F9E4F0E94FE
:1010D000A600882359F36091450770914607CE0119
:1010E0008B5F9E4F0E94A600882301F365E873E0A2
:1010F000CE018B5F9E4F0E94A6008823B9F26091BB
:10110000470770914807CE018B5F9E4F0E94A60053
:10111000882361F26CE973E0CE018B5F9E4F0E94E1
:10112000A600882319F26CE074E0CE018B5F9E4F1D
:101130000E94A600882309F4B9CF62EB73E0CE01C8
:101140008B5F9E4F0E94A600882309F4AFCF609169
:10115000490770914A07CE018B5F9E4F0E94A600FF
:10116000882309F4A3CF69E374E0CE018B5F9E4F1F
:101170000E94A600882309F499CF51CD70E060E069
:1011800087E592E001301105C1F10C301105C1F580
:1011900080914B0790914C07892B19F485EF92E0D1
:1011A0003CCDE2ECF0E0EC0FFD1FFF9600811181D9
:1011B00021E330E0AE014B5F5E4F6DED73E0CE0199
:1011C00001960E945305CB5FDE4F8881C550D14008
:1011D000811103C082EC93E020CDE0914B07F091A8
:1011E0004C07CE018B5F9E4F0995811103C085EDA1
:1011F00093E013CD70E060E0C8010E947A010FCD4A
:1012000060904D0770904E076114710481F1CC53CA
:10121000DF4F8881C45CD040882349F1C0905107DA
:10122000D09052075301F12CE12C62EC862E912CC8
:101230008C0E9D1EF2E08F0E911CCE14DF04B9F0CF
:10124000150126183708F50140805180B401C2010C
:101250000E949C109501285F3F4F892B29F0FFEFDA
:10126000EF1AFF0A5901E9CFA114B10449F462EC65
:1012700070E06C0F7D1F6E5F7F4F89E093E065CE5D
:1012800080914F0790915007009709F441C00530B5
:10129000110509F441C098F503301105C8F1F501B5
:1012A00023813481232BA1F505301105D9F10630B6
:1012B000110509F4C3C00430110509F4ABC0CB51CA
:1012C000DF4F088119812A813B81C55ED040C12C46
:1012D000D12C7601CC51DF4F4881C45ED04061E013
:1012E00070E0C5010E941304F50160817181E2EC98
:1012F000F0E0EC0FFD1FFF96808191817ECF0730DB
:10130000110509F4ACC058F20830110509F445C0C4
:10131000B20185EF92E019CEF501238134812230AC
:101320003105B0F7C751DF4FC880D980EA80FB8014
:10133000C95ED040CB51DF4F488059806A807B80A6
:10134000C55ED04053E0359427945A95E1F723E1E8
:10135000229D8001239D100D1124080F191F0E944A
:101360004A0223E030E0F8013183208362837383F3
:10137000848395834682578260867186C286D3862F
:10138000E486F58666877787808B918B81E0828BF8
:1013900060E0C5010E948E03A7CFF501238134814F
:1013A0002130310509F0B4CFCB51DF4FC880D9804F
:1013B000EA80FB80C55ED040C351DF4F9880CD5E90
:1013C000D04023E0359427942A95E1F723E1229D2C
:1013D0008001239D100D1124080F191F85E090E056
:1013E000F801918380830E944A02F801628373832B
:1013F00084839583C682D782E086F186128613861F
:101400001486158681E0911001C080E0F801828B7E
:10141000692DBFCFC751DF4FC880D980EA80FB80DC
:10142000C95ED040CB51DF4F088119812A813B81B1
:10143000C55ED04041E062E070E053CFCB51DF4F5A
:10144000088119812A813B81C55ED04046E9C42EBE
:10145000D12CE12CF12C41E064E070E042CFC501D9
:101460000E946A0441CF1F93CF93DF93EC01162FA4
:101470000E94030E181739F0612FCE01DF91CF9132
:101480001F910C940B0EDF91CF911F910895AF9295
:10149000BF92CF92DF92EF92FF920F931F93CF9361
:1014A000DF930091AD041091AE040115110569F4AC
:1014B000F12C8F2DDF91CF911F910F91FF90EF9025
:1014C000DF90CF90BF90AF900895009789F3FC0113
:1014D0002081222369F3EC010E947103882341F3E8
:1014E00063E4F801868197810E94330AE091AD049C
:1014F000F091AE048681978163E401960E94330ADD
:10150000E091AD04F091AE04868197816EE402967D
:101510000E94330AE091AD04F091AE048681978178
:1015200061E303960E94330A5E01D12CC12CF501C0
:10153000F1905F01E091AD04F091AE04008511855A
:101540000C0D1D1DC8010E94030EF81621F06F2D11
:10155000C8010E940B0EFF2039F0FFEFCF1ADF0AFF
:1015600081E3C816D10419F7C090AD04D090AE0441
:10157000C60106960E94DB04F82E882309F498CF52
:101580008CE7A82E84E0B82E10E000E0E990F60188
:1015900080859185800F911F0E94D904E81288CF21
:1015A000F501E1925F01EE2029F00F5F1F4F01333B
:1015B000110561F71092AC047CCF1F920F920FB609
:1015C0000F9211242F933F938F939F93AF93BF93C9
:1015D0008091620590916305A0916405B0916505C5
:1015E0003091610523E0230F2D3758F50196A11D99
:1015F000B11D209361058093620590936305A093CC
:101600006405B093650580915D0590915E05A0919C
:101610005F05B09160050196A11DB11D80935D0528
:1016200090935E05A0935F05B0936005BF91AF9165
:101630009F918F913F912F910F900FBE0F901F9010
:10164000189526E8230F0296A11DB11DD2CF1F9237
:101650000F920FB60F9211242F933F934F935F93E6
:101660006F937F938F939F93AF93BF93EF93FF936A
:1016700088EA96E00E94D402FF91EF91BF91AF916A
:101680009F918F917F916F915F914F913F912F919A
:101690000F900FBE0F901F9018951F920F920FB6CC
:1016A0000F9211242F938F939F93EF93FF93E091C9
:1016B000B806F091B9068081E091BE06F091BF06B0
:1016C00082FD1BC090818091C1068F5F8F73209136
:1016D000C206821741F0E091C106F0E0E855F94FEB
:1016E000958F8093C106FF91EF919F918F912F91DC
:1016F0000F900FBE0F901F9018958081F4CF7894B3
:1017000084B5826084BD84B5816084BD85B5826006
:1017100085BD85B5816085BD80916E0081608093B7
:101720006E00109281008091810082608093810020
:101730008091810081608093810080918000816030
:10174000809380008091B10084608093B10080918B
:10175000B00081608093B00080917A0084608093B3
:101760007A0080917A00826080937A0080917A007A
:10177000816080937A0080917A00806880937A00FB
:101780001092C10088E191E09093AE048093AD0483
:101790008EE191E00E94DB040CE714E0C4E0D0E0AD
:1017A0008111B2C041E350E068EE73E08CE794E051
:1017B0000E94BA101092AC048CEF93E0909346070D
:1017C0008093450788E094E090934807809347070B
:1017D0008CE794E090934A078093490787E49AE066
:1017E00090934C0780934B0782E291E090934E07D1
:1017F00080934D078FEA94E09093500780934F07B2
:1018000089E090E09093520780935107CFEAD4E0AB
:1018100002E211E06AE5E62E65E0F62E19821882F2
:101820001A821B821C821D821E821F8218861986C4
:101830001A861B861C861D861E861F86188A198A94
:101840001A8AC8010E946A046396085F1F4FEC164B
:10185000FD0621F7E091B806F091B90682E0808399
:10186000E091B406F091B5061082E091B606F091D1
:10187000B70680E180831092C006E091BC06F0912B
:10188000BD0686E08083E091BA06F091BB068081B8
:1018900080618083E091BA06F091BB068081886008
:1018A0008083E091BA06F091BB06808180688083D6
:1018B000E091BA06F091BB0680818F7D8083109203
:1018C0005B0510925A051092660510925C0550E077
:1018D000252E50E0352E88EA96E00E94B4021816B4
:1018E00019060CF089C088EA96E00E949202909155
:1018F0005C05992319F18A3071F710925C051092FA
:101900005B0510925A0522C0CE010E94030ED80139
:101910008D938D01882321F02196C433D105A1F741
:101920001092AC0480917C04882309F43BCF8CE7AF
:1019300094E00E94710381113FCF34CF8A30D9F4F3
:1019400080915A0590915B05009719F410926605F5
:10195000C2CF8A599A4FFC0110821092E7050E946B
:10196000D105811105C089E891E00E94C204C7CF6A
:1019700087EE95E0FACF8D3009F4ADCF20915A056E
:1019800030915B052038310540F16EE270E090E067
:1019900080E00E94CB0FEC0150E040E0009739F06E
:1019A00018826EE074E00E94A5104DE250E0BE0186
:1019B00088EA96E00E9456020E94BA04209719F025
:1019C000CE010E94420F10925B0510925A051092B0
:1019D0006605F1E0F0935C057ECFF901EA59FA4F14
:1019E00080832F5F3F4F30935B0520935A052A5920
:1019F0003A4FD9011C926FCF80914F0790915007B9
:101A0000892B09F4C7C080914D0790914E07892B0F
:101A100009F4C0C0F12CE12CD12CC12C80915107CC
:101A200090915207C816D90608F0B4C000914D072E
:101A300010914E070E0D1F1D970143E03595279518
:101A40004A95E1F7B3E1B29FC001B39F900D112415
:101A5000C0914F07D0915007C80FD91F0E944A026A
:101A6000AB01BC018E819F81A885B9850097A10536
:101A7000B105D9F04A805B806C807D804A015B01B2
:101A800084189508A608B708240135014816590698
:101A90006A067B0650F0C8010E946A044FEFC41A20
:101AA000D40A88E0E80EF11CB9CF8881998183308F
:101AB000910509F041C04A845B846C847D8488EC84
:101AC000481651046104710428F498EC492E512CF5
:101AD000612C712C8A819B81AC81BD814A015B01A3
:101AE000881A990AAA0ABB0AC501B401A301920186
:101AF0000E947E0E9B01AC0153014201B694A79453
:101B00009794879482169306A406B50640F4D301F1
:101B1000C201821B930BA40BB50B9C01AD01A4E683
:101B2000B0E00E94190EA50194010E947E0E622F62
:101B3000C8010E948E03B2CF8230910519F004973C
:101B400009F0ACCF8A859B85AC85BD850097A10542
:101B5000B10509F4A3CF4E845F84688879884A016F
:101B60005B0184189508A608B708240135014816BA
:101B700059066A067B0608F491CF4E875F87688B0B
:101B8000798B6A899924939469256A8BC8010E948C
:101B9000000484CF2114310409F49DCE0E94C002B8
:101BA000882309F498CE0E94000095CEE8EAF6E07A
:101BB0001382128288EE93E0A0E0B0E084839583E4
:101BC000A683B7838AE091E09183808385EC90E0DF
:101BD0009587848784EC90E09787868780EC90E0F7
:101BE000918B808B81EC90E0938B828B82EC90E0E8
:101BF000958B848B86EC90E0978B868B118E128E62
:101C0000138E148E0895F999FECF92BD81BDF89A76
:101C1000992780B50895262FF999FECF1FBA92BD56
:101C200081BD20BD0FB6F894FA9AF99A0FBE0196BD
:101C300008950E945B0EA59F900DB49F900DA49FE8
:101C4000800D911D112408952F923F924F925F9223
:101C50006F927F928F929F92AF92BF92CF92DF92BC
:101C6000EF92FF920F931F93CF93DF93CDB7DEB721
:101C7000CA1BDB0B0FB6F894DEBF0FBECDBF0994B5
:101C80002A88398848885F846E847D848C849B840C
:101C9000AA84B984C884DF80EE80FD800C811B811A
:101CA000AA81B981CE0FD11D0FB6F894DEBF0FBE49
:101CB000CDBFED010895A29FB001B39FC001A39FC6
:101CC000700D811D1124911DB29F700D811D112475
:101CD000911D0895AA1BBB1B51E107C0AA1FBB1F82
:101CE000A617B70710F0A61BB70B881F991F5A95A8
:101CF000A9F780959095BC01CD010895A1E21A2E17
:101D0000AA1BBB1BFD010DC0AA1FBB1FEE1FFF1F9F
:101D1000A217B307E407F50720F0A21BB30BE40BEF
:101D2000F50B661F771F881F991F1A9469F7609536
:101D30007095809590959B01AC01BD01CF010895F0
:101D4000EE0FFF1F0590F491E02D09940F931F9360
:101D5000CF93DF938230910510F482E090E0E09120
:101D60005507F091560730E020E0B0E0A0E0309752
:101D700099F42115310509F44AC0281B390B243088
:101D80003105D8F58A819B816115710589F1FB01C7
:101D900093838283FE0111C04081518102811381AE
:101DA00048175907E0F04817590799F4109761F060
:101DB00012960C93129713961C933296CF01DF91D3
:101DC000CF911F910F9108950093550710935607D7
:101DD000F4CF2115310551F04217530738F0A9010E
:101DE000DB019A01BD01DF01F801C1CFEF01F9CF9D
:101DF0009093560780935507CDCFFE01E20FF31F56
:101E0000819391932250310939832883D7CF209130
:101E1000530730915407232B41F420910201309154
:101E20000301309354072093530720910001309110
:101E300001012115310541F42DB73EB74091040150
:101E400050910501241B350BE0915307F091540785
:101E5000E217F307A0F42E1B3F0B2817390778F081
:101E6000AC014E5F5F4F2417350748F04E0F5F1FE0
:101E70005093540740935307819391939FCFF0E081
:101E8000E0E09CCFCF93DF930097E9F0FC0132971D
:101E900013821282A0915507B0915607ED0130E0F0
:101EA00020E01097A1F420813181820F931F2091AF
:101EB0005307309154072817390709F061C0F09390
:101EC0005407E0935307DF91CF910895EA01CE17AD
:101ED000DF07E8F54A815B819E0141155105B1F7A5
:101EE000E901FB83EA8349915991C40FD51FEC178F
:101EF000FD0761F4808191810296840F951FE901AD
:101F000099838883828193819B838A83F0E0E0E0D8
:101F100012968D919C9113970097B9F52D913C9154
:101F20001197CD010296820F931F20915307309194
:101F300054072817390739F6309751F5109256078C
:101F400010925507B0935407A0935307BCCFD38387
:101F5000C28340815181840F951FC817D90761F44E
:101F60004E5F5F4F88819981480F591F518340838D
:101F70008A819B81938382832115310509F0B0CF3B
:101F8000F0935607E09355079ECFFD01DC01C0CFCB
:101F900013821282D7CFB0E0A0E0E1EDFFE00C9415
:101FA000260E8C01009751F4CB010E94A60E8C01E5
:101FB000C801CDB7DEB7E0E10C94420EFC01E60F9C
:101FC000F71F9C0122503109E217F30708F49DC066
:101FD000D901CD91DC911197C617D70798F0C5307C
:101FE000D10530F3CE0104978617970708F3C61B77
:101FF000D70B2297C193D1936D937C93CF010E940D
:10200000420FD6CF5B01AC1ABD0A4C018C0E9D1E4F
:10201000A0915507B0915607512C412CF12CE12C81
:10202000109731F5809153079091540788159905C1
:1020300009F05CC04616570608F058C080910001B0
:1020400090910101009741F48DB79EB74091040132
:1020500050910501841B950BE817F90708F055C04E
:10206000F0935407E0935307F90171836083A0CF85
:102070008D919C91119712966C90129713967C906B
:102080001397A815B90559F56C0142E0C40ED11C8F
:10209000CA14DB0420F1AC014A195B09DA0112967B
:1020A000159780F06282738251834083D9016D93CA
:1020B0007C93E114F10471F0D7011396FC93EE9335
:1020C000129776CF22968C0F9D1FF9019183808302
:1020D000F301EFCFF0935607E093550769CF481609
:1020E000590608F42C017D01D3019ACFCB010E943F
:1020F000A60E7C01009749F0AE01B8010E9488103D
:10210000C8010E94420F870153CF10E000E050CF7A
:10211000FB01DC0102C001900D9241505040D8F704
:102120000895FC018191861721F08823D9F799271A
:1021300008953197CF010895FB01DC018D91019045
:1021400080190110D9F3990B0895FB01DC0101906E
:102150000D920020E1F70895FB01DC014150504051
:1021600030F08D910190801919F40020B9F7881B87
:10217000990B0895FB01DC014150504048F001905B
:102180000D920020C9F701C01D9241505040E0F768
:062190000895F894FFCF52
:1021960000005707800000000000F6025602830286
:1021A6004303B4029202A602FC030804E8030000FB
:1021B60004003C0402000001000043040300000187
:1021C60000004A040400000100005104050000015B
:1021D600000058040600000100005F04070000012B
:1021E600000066040800000100006D0409000001FB
:1021F600000074040A0000010000756E6B6E6F77B4
:102206006E5F6572726F72007B226F6B223A666137
:102216006C73652C2276223A007B226F6B223A661B
:10222600616C73652C2276223A322C226572726FAB
:1022360072223A22726573706F6E73655F746F6F88
:102246005F6C6F6E67227D002C226572726F722240
:102256003A2200726573706F6E73655F746F6F5F9D
:102266006C6F6E6700222C226368616E6E656C224D
:102276003A22006F6B007B226F6B223A747275658F
:102286002C2276223A002C2274797065223A22009A
:102296000D0A00636F6D6D616E645F746F6F5F6CC6
:1022A6006F6E6700656D7074795F636F6D6D616EDB
:1022B6006400756E737570706F7274656400760075
:1022C600756E737570706F727465645F70726F741B
:1022D6006F636F6C5F76657273696F6E0070696E9F
:1022E60067007479706500706F6E67006465766963
:1022F60063655F696E666F006469676974616C5FC8
:102306007772697465006469676974616C5F626C91
:10231600696E6B006469676974616C5F627265619E
:10232600746865006469676974616C5F70756C7365
:102336006500636C6561725F6368616E6E656C00F3
:1023460070776D5F77726974650062757A7A657207
:102356005F626565700062757A7A65725F746F6E2A
:1023660065006164647265737361626C655F6C6558
:10237600645F736574007365745F6465766963652D
:102386005F75696400756E737570706F72746564DD
:102396005F636F6D6D616E6400756E6B6E6F776EE9
:1023A6005F6368616E6E656C007374617465006965
:1023B6006E616374697665006475726174696F6EC7
:1023C6005F6D7300696E74657276616C5F6D730024
:1023D600647574795F70657263656E7400646576A2
:1023E6006963655F696E666F5F746F6F5F6C6F6E52
:1023F60067002C2274797065223A226465766963D7
:10240600655F696E666F222C22626F6172645F6916
:1024160064223A2200222C226669726D7761726507
:102426005F76657273696F6E223A2200222C2270E3
:10243600726F746F636F6C5F76657273696F6E220D
:102446003A002C226465766963655F756964223A91
:1024560022006D697373696E675F6465766963658B
:102466005F75696400696E76616C69645F64657640
:102476006963655F7569640061726475696E6F2D65
:10248600756E6F3A6C696D69746564006172647526
:10249600696E6F2D756E6F00302E322E32007B22E4
:1024A6006F6B223A66616C73652C2276223A322C67
:1024B600226572726F72223A22636F6D6D616E646D
:1024C6005F746F6F5F6C6F6E67227D0070696E2E32
:1024D60064320070696E2E64330070696E2E643447
:1024E6000070696E2E64350070696E2E6436007059
:1024F600696E2E64370070696E2E64380070696EDE
:0C2506002E64390070696E2E64313000C4
:00000001FF
